:100000000C9452000C94FB000C94FB000C94FB002D
:100010000C94FB000C94FB000C94FB000C94FB0074
:100020000C94FB000C94FB000C94FB000C94FB0064
:100030000C94FB000C94FB000C94FB000C94FB0054
:100040000C94FB000C94FB000C94FB000C94FB0044
:100050000C94FB000C94FB000C94FB000C94FB0034
:100060000C94FB000C94FB000C94FB000C94FB0024
:100070000C94FB000C94FB000C94FB000C94FB0014
:100080000C94FB000C94FB000C94FB000C94FB0004
:100090000C94FB000C94FB000C94FB000C94FB00F4
:1000A0000C94FB0011241FBECFEFCDBFDFE7DEBFF6
:0C00B0000E94BA000C94D300F894FFCF1B
:1000BC001F93CF93DF93D82F192FC62F60E080E5C5
:1000CC000E94DE000E94F60082E00E94F000E0E058
:1000DC00F9E0858186FFFDCF10930809E0E0F9E097
:1000EC00858186FFFDCFD0930809E0E0F9E085819A
:1000FC0086FFFDCFC0930809E0E0F9E0858184FD1F
:10010C00FDCF83E00E94F000DF91CF911F91089505
:10011C00CF93DF93C82FD92F60E080E50E94DE00DB
:10012C000E94F60082E00E94F000E0E0F9E0858198
:10013C0086FFFDCFD0930809E0E0F9E0858186FFCA
:10014C00FDCFC093080961E080E50E94DE0082E0EB
:10015C000E94F0000E94E800C82F83E00E94F0008B
:08016C008C2FDF91CF91089563
:100174000E94C8006DEA81E090E00E945E0080E089
:0C01840091E00E948E008CBB0000F9CFBF
:10019000E0E0F9E08FEF868383818160838385814E
:0601A000816085830895D3
:1001A600EC010E9400010E94FF00CE010E940101A5
:0601B600CE010E94FD00D5
:1001BC00880F680F60930709E0E0F9E0858184FD02
:0401CC00FDCF0895C6
:1001D000E0E0F9E085818823ECF780910809089533
:0C01E000E0E0F9E09481892B848308950D
:0A01EC00E0E0F9E084811482089538
:0401F6000C94000065
:0401FA000E945C0003
:0201FE00089562
:0202000008955F
:0202020008955D
:00000001FF
